{
  "contractName": "BloBlo",
  "abi": [
    {
      "inputs": [],
      "payable": false,
      "stateMutability": "nonpayable",
      "type": "constructor"
    },
    {
      "anonymous": false,
      "inputs": [
        {
          "indexed": true,
          "name": "ipfsHash",
          "type": "bytes32"
        }
      ],
      "name": "NewBatch",
      "type": "event"
    },
    {
      "constant": false,
      "inputs": [
        {
          "name": "ipfsHash",
          "type": "bytes32"
        }
      ],
      "name": "newBatch",
      "outputs": [],
      "payable": false,
      "stateMutability": "nonpayable",
      "type": "function"
    }
  ],
  "bytecode": "0x608060405234801561001057600080fd5b5060d28061001f6000396000f300608060405260043610603f576000357c0100000000000000000000000000000000000000000000000000000000900463ffffffff16806358c3c193146044575b600080fd5b348015604f57600080fd5b50607060048036038101908080356000191690602001909291905050506072565b005b80600019167f2e325f4af2483b318238291c6cda1df052b2f3cb323549ccbebae9c03d367d9560405160405180910390a2505600a165627a7a723058202049009de14f94f013081fd67c9c88966e7ea9df5b2749f8904389b334dfce140029",
  "source": "pragma solidity ^0.4.2;\n\ncontract BloBlo {\n\n    event NewBatch(\n        bytes32 indexed ipfsHash\n    );\n\n    function BloBlo() public { }\n    \n    function newBatch(bytes32 ipfsHash) public {\n        NewBatch(ipfsHash);\n    }\n}",
  "sourcePath": "/home/killua/Downloads/compare/contracts/BloBlo.sol",
  "compiler": {
    "name": "solc",
    "version": "0.4.24+commit.e67f0147.Emscripten.clang"
  },
  "schemaVersion": "2.0.1",
  "updatedAt": "2018-12-02T02:23:56.162Z"
}